{
  "contractName": "IdentityManagement",
  "abi": [
    {
      "inputs": [],
      "payable": false,
      "stateMutability": "nonpayable",
      "type": "constructor"
    },
    {
      "anonymous": false,
      "inputs": [
        {
          "indexed": true,
          "internalType": "address",
          "name": "_from",
          "type": "address"
        },
        {
          "indexed": true,
          "internalType": "address",
          "name": "_walletId",
          "type": "address"
        },
        {
          "indexed": true,
          "internalType": "address",
          "name": "_dlId",
          "type": "address"
        }
      ],
      "name": "DLAttached",
      "type": "event"
    },
    {
      "anonymous": false,
      "inputs": [
        {
          "indexed": false,
          "internalType": "uint256",
          "name": "_id",
          "type": "uint256"
        }
      ],
      "name": "RequestApproved",
      "type": "event"
    },
    {
      "anonymous": false,
      "inputs": [
        {
          "indexed": false,
          "internalType": "uint256",
          "name": "_id",
          "type": "uint256"
        }
      ],
      "name": "RequestCreated",
      "type": "event"
    },
    {
      "anonymous": false,
      "inputs": [
        {
          "indexed": false,
          "internalType": "string",
          "name": "dlNo",
          "type": "string"
        },
        {
          "indexed": false,
          "internalType": "string",
          "name": "dlName",
          "type": "string"
        },
        {
          "indexed": false,
          "internalType": "string",
          "name": "dlDOB",
          "type": "string"
        },
        {
          "indexed": false,
          "internalType": "string",
          "name": "dlAddress",
          "type": "string"
        },
        {
          "indexed": false,
          "internalType": "string",
          "name": "",
          "type": "string"
        }
      ],
      "name": "RetrieveApproved",
      "type": "event"
    },
    {
      "anonymous": false,
      "inputs": [
        {
          "indexed": true,
          "internalType": "address",
          "name": "_from",
          "type": "address"
        },
        {
          "indexed": true,
          "internalType": "address",
          "name": "_id",
          "type": "address"
        }
      ],
      "name": "WalletCreated",
      "type": "event"
    },
    {
      "constant": true,
      "inputs": [
        {
          "internalType": "address",
          "name": "",
          "type": "address"
        }
      ],
      "name": "DLs",
      "outputs": [
        {
          "internalType": "address",
          "name": "walletId",
          "type": "address"
        },
        {
          "internalType": "string",
          "name": "dlName",
          "type": "string"
        },
        {
          "internalType": "string",
          "name": "dlNumber",
          "type": "string"
        },
        {
          "internalType": "string",
          "name": "dlDob",
          "type": "string"
        },
        {
          "internalType": "string",
          "name": "dlAddress",
          "type": "string"
        }
      ],
      "payable": false,
      "stateMutability": "view",
      "type": "function"
    },
    {
      "constant": true,
      "inputs": [],
      "name": "dlsCount",
      "outputs": [
        {
          "internalType": "uint256",
          "name": "",
          "type": "uint256"
        }
      ],
      "payable": false,
      "stateMutability": "view",
      "type": "function"
    },
    {
      "constant": true,
      "inputs": [
        {
          "internalType": "uint256",
          "name": "",
          "type": "uint256"
        }
      ],
      "name": "requests",
      "outputs": [
        {
          "internalType": "uint256",
          "name": "id",
          "type": "uint256"
        },
        {
          "internalType": "string",
          "name": "institution_name",
          "type": "string"
        },
        {
          "internalType": "address",
          "name": "requestedId",
          "type": "address"
        },
        {
          "internalType": "string",
          "name": "requestedPermissionsString",
          "type": "string"
        },
        {
          "internalType": "string",
          "name": "approvedPermissionsString",
          "type": "string"
        },
        {
          "internalType": "string",
          "name": "status",
          "type": "string"
        }
      ],
      "payable": false,
      "stateMutability": "view",
      "type": "function"
    },
    {
      "constant": true,
      "inputs": [],
      "name": "requestsCount",
      "outputs": [
        {
          "internalType": "uint256",
          "name": "",
          "type": "uint256"
        }
      ],
      "payable": false,
      "stateMutability": "view",
      "type": "function"
    },
    {
      "constant": true,
      "inputs": [
        {
          "internalType": "address",
          "name": "",
          "type": "address"
        }
      ],
      "name": "wallets",
      "outputs": [
        {
          "internalType": "address",
          "name": "id",
          "type": "address"
        },
        {
          "internalType": "string",
          "name": "name",
          "type": "string"
        },
        {
          "internalType": "string",
          "name": "email",
          "type": "string"
        },
        {
          "internalType": "string",
          "name": "phone",
          "type": "string"
        }
      ],
      "payable": false,
      "stateMutability": "view",
      "type": "function"
    },
    {
      "constant": true,
      "inputs": [],
      "name": "walletsCount",
      "outputs": [
        {
          "internalType": "uint256",
          "name": "",
          "type": "uint256"
        }
      ],
      "payable": false,
      "stateMutability": "view",
      "type": "function"
    },
    {
      "constant": false,
      "inputs": [
        {
          "internalType": "string",
          "name": "name",
          "type": "string"
        },
        {
          "internalType": "string",
          "name": "email",
          "type": "string"
        },
        {
          "internalType": "string",
          "name": "phone",
          "type": "string"
        }
      ],
      "name": "addWallet",
      "outputs": [
        {
          "internalType": "uint256",
          "name": "",
          "type": "uint256"
        }
      ],
      "payable": false,
      "stateMutability": "nonpayable",
      "type": "function"
    },
    {
      "constant": false,
      "inputs": [
        {
          "internalType": "string",
          "name": "name",
          "type": "string"
        },
        {
          "internalType": "string",
          "name": "number",
          "type": "string"
        },
        {
          "internalType": "string",
          "name": "dob",
          "type": "string"
        },
        {
          "internalType": "string",
          "name": "dlAddress",
          "type": "string"
        }
      ],
      "name": "attachDl",
      "outputs": [],
      "payable": false,
      "stateMutability": "nonpayable",
      "type": "function"
    },
    {
      "constant": false,
      "inputs": [
        {
          "internalType": "string",
          "name": "name",
          "type": "string"
        },
        {
          "internalType": "address",
          "name": "requestedId",
          "type": "address"
        },
        {
          "internalType": "string",
          "name": "permissionString",
          "type": "string"
        }
      ],
      "name": "createRequest",
      "outputs": [],
      "payable": false,
      "stateMutability": "nonpayable",
      "type": "function"
    },
    {
      "constant": false,
      "inputs": [
        {
          "internalType": "uint256",
          "name": "requestId",
          "type": "uint256"
        },
        {
          "internalType": "string",
          "name": "status",
          "type": "string"
        },
        {
          "internalType": "string",
          "name": "permissionString",
          "type": "string"
        }
      ],
      "name": "approveRequest",
      "outputs": [],
      "payable": false,
      "stateMutability": "nonpayable",
      "type": "function"
    }
  ],
  "bytecode": "0x608060405234801561001057600080fd5b506116c9806100206000396000f3fe608060405234801561001057600080fd5b506004361061009e5760003560e01c8063a0c3a15e11610066578063a0c3a15e14610177578063a8254bb014610193578063c8148908146101af578063da24065b146101e3578063fbfa4b7f146101ff5761009e565b806303831e7a146100a357806347b2470d146100d35780634f3cb0ed146100f157806381d12c581461010f57806389b08f1114610144575b600080fd5b6100bd60048036036100b8919081019061119a565b61021d565b6040516100ca91906114bc565b60405180910390f35b6100db6103a8565b6040516100e891906114bc565b60405180910390f35b6100f96103ae565b60405161010691906114bc565b60405180910390f35b610129600480360361012491908101906112f4565b6103b4565b60405161013b969594939291906114d7565b60405180910390f35b61015e600480360361015991908101906110f2565b610670565b60405161016e94939291906113f3565b60405180910390f35b610191600480360361018c9190810190611231565b610888565b005b6101ad60048036036101a8919081019061131d565b610a4b565b005b6101c960048036036101c491908101906110f2565b610add565b6040516101da95949392919061144d565b60405180910390f35b6101fd60048036036101f8919081019061111b565b610d93565b005b610207610f49565b60405161021491906114bc565b60405180910390f35b600060036000815480929190600101919050555060405180608001604052803373ffffffffffffffffffffffffffffffffffffffff168152602001858152602001848152602001838152506000803373ffffffffffffffffffffffffffffffffffffffff1673ffffffffffffffffffffffffffffffffffffffff16815260200190815260200160002060008201518160000160006101000a81548173ffffffffffffffffffffffffffffffffffffffff021916908373ffffffffffffffffffffffffffffffffffffffff1602179055506020820151816001019080519060200190610309929190610f4f565b506040820151816002019080519060200190610326929190610f4f565b506060820151816003019080519060200190610343929190610f4f565b509050503373ffffffffffffffffffffffffffffffffffffffff163373ffffffffffffffffffffffffffffffffffffffff167f5b03bfed1c14a02bdeceb5fa582eb1a5765fc0bc64ca0e6af4c20afc9487f08160405160405180910390a39392505050565b60035481565b60045481565b6002602052806000526040600020600091509050806000015490806001018054600181600116156101000203166002900480601f0160208091040260200160405190810160405280929190818152602001828054600181600116156101000203166002900480156104665780601f1061043b57610100808354040283529160200191610466565b820191906000526020600020905b81548152906001019060200180831161044957829003601f168201915b5050505050908060020160009054906101000a900473ffffffffffffffffffffffffffffffffffffffff1690806003018054600181600116156101000203166002900480601f01602080910402602001604051908101604052809291908181526020018280546001816001161561010002031660029004801561052a5780601f106104ff5761010080835404028352916020019161052a565b820191906000526020600020905b81548152906001019060200180831161050d57829003601f168201915b505050505090806004018054600181600116156101000203166002900480601f0160208091040260200160405190810160405280929190818152602001828054600181600116156101000203166002900480156105c85780601f1061059d576101008083540402835291602001916105c8565b820191906000526020600020905b8154815290600101906020018083116105ab57829003601f168201915b505050505090806005018054600181600116156101000203166002900480601f0160208091040260200160405190810160405280929190818152602001828054600181600116156101000203166002900480156106665780601f1061063b57610100808354040283529160200191610666565b820191906000526020600020905b81548152906001019060200180831161064957829003601f168201915b5050505050905086565b60006020528060005260406000206000915090508060000160009054906101000a900473ffffffffffffffffffffffffffffffffffffffff1690806001018054600181600116156101000203166002900480601f0160208091040260200160405190810160405280929190818152602001828054600181600116156101000203166002900480156107425780601f1061071757610100808354040283529160200191610742565b820191906000526020600020905b81548152906001019060200180831161072557829003601f168201915b505050505090806002018054600181600116156101000203166002900480601f0160208091040260200160405190810160405280929190818152602001828054600181600116156101000203166002900480156107e05780601f106107b5576101008083540402835291602001916107e0565b820191906000526020600020905b8154815290600101906020018083116107c357829003601f168201915b505050505090806003018054600181600116156101000203166002900480601f01602080910402602001604051908101604052809291908181526020018280546001816001161561010002031660029004801561087e5780601f106108535761010080835404028352916020019161087e565b820191906000526020600020905b81548152906001019060200180831161086157829003601f168201915b5050505050905084565b6004600081548092919060010191905055506040518060a001604052803373ffffffffffffffffffffffffffffffffffffffff16815260200185815260200184815260200183815260200182815250600160003373ffffffffffffffffffffffffffffffffffffffff1673ffffffffffffffffffffffffffffffffffffffff16815260200190815260200160002060008201518160000160006101000a81548173ffffffffffffffffffffffffffffffffffffffff021916908373ffffffffffffffffffffffffffffffffffffffff1602179055506020820151816001019080519060200190610979929190610f4f565b506040820151816002019080519060200190610996929190610f4f565b5060608201518160030190805190602001906109b3929190610f4f565b5060808201518160040190805190602001906109d0929190610f4f565b509050503373ffffffffffffffffffffffffffffffffffffffff163373ffffffffffffffffffffffffffffffffffffffff163373ffffffffffffffffffffffffffffffffffffffff167fe1f7edd74a1f161464b3820d105252dc3b0afe10207f1df9914591db649db75460405160405180910390a450505050565b80600260008581526020019081526020016000206004019080519060200190610a75929190610fcf565b5081600260008581526020019081526020016000206005019080519060200190610aa0929190610fcf565b507fbecbbd7543b68baaaf7e9c3fd12e4719f1f506f4253abef4a6573d0adf3a73ed83604051610ad091906114bc565b60405180910390a1505050565b60016020528060005260406000206000915090508060000160009054906101000a900473ffffffffffffffffffffffffffffffffffffffff1690806001018054600181600116156101000203166002900480601f016020809104026020016040519081016040528092919081815260200182805460018160011615610100020316600290048015610baf5780601f10610b8457610100808354040283529160200191610baf565b820191906000526020600020905b815481529060010190602001808311610b9257829003601f168201915b505050505090806002018054600181600116156101000203166002900480601f016020809104026020016040519081016040528092919081815260200182805460018160011615610100020316600290048015610c4d5780601f10610c2257610100808354040283529160200191610c4d565b820191906000526020600020905b815481529060010190602001808311610c3057829003601f168201915b505050505090806003018054600181600116156101000203166002900480601f016020809104026020016040519081016040528092919081815260200182805460018160011615610100020316600290048015610ceb5780601f10610cc057610100808354040283529160200191610ceb565b820191906000526020600020905b815481529060010190602001808311610cce57829003601f168201915b505050505090806004018054600181600116156101000203166002900480601f016020809104026020016040519081016040528092919081815260200182805460018160011615610100020316600290048015610d895780601f10610d5e57610100808354040283529160200191610d89565b820191906000526020600020905b815481529060010190602001808311610d6c57829003601f168201915b5050505050905085565b6005600081548092919060010191905055506040518060c0016040528060055481526020018481526020018373ffffffffffffffffffffffffffffffffffffffff1681526020018281526020016040518060200160405280600081525081526020016040518060400160405280600781526020017f50454e44494e4700000000000000000000000000000000000000000000000000815250815250600260006005548152602001908152602001600020600082015181600001556020820151816001019080519060200190610e69929190610f4f565b5060408201518160020160006101000a81548173ffffffffffffffffffffffffffffffffffffffff021916908373ffffffffffffffffffffffffffffffffffffffff1602179055506060820151816003019080519060200190610ecd929190610f4f565b506080820151816004019080519060200190610eea929190610f4f565b5060a0820151816005019080519060200190610f07929190610f4f565b509050507f97890542421e06ad80deca7ba945fd211a48ec6d89da2510960446025b78e324600554604051610f3c91906114bc565b60405180910390a1505050565b60055481565b828054600181600116156101000203166002900490600052602060002090601f016020900481019282601f10610f9057805160ff1916838001178555610fbe565b82800160010185558215610fbe579182015b82811115610fbd578251825591602001919060010190610fa2565b5b509050610fcb919061104f565b5090565b828054600181600116156101000203166002900490600052602060002090601f016020900481019282601f1061101057805160ff191683800117855561103e565b8280016001018555821561103e579182015b8281111561103d578251825591602001919060010190611022565b5b50905061104b919061104f565b5090565b61107191905b8082111561106d576000816000905550600101611055565b5090565b90565b60008135905061108381611658565b92915050565b600082601f83011261109a57600080fd5b81356110ad6110a882611581565b611554565b915080825260208301602083018583830111156110c957600080fd5b6110d4838284611605565b50505092915050565b6000813590506110ec8161166f565b92915050565b60006020828403121561110457600080fd5b600061111284828501611074565b91505092915050565b60008060006060848603121561113057600080fd5b600084013567ffffffffffffffff81111561114a57600080fd5b61115686828701611089565b935050602061116786828701611074565b925050604084013567ffffffffffffffff81111561118457600080fd5b61119086828701611089565b9150509250925092565b6000806000606084860312156111af57600080fd5b600084013567ffffffffffffffff8111156111c957600080fd5b6111d586828701611089565b935050602084013567ffffffffffffffff8111156111f257600080fd5b6111fe86828701611089565b925050604084013567ffffffffffffffff81111561121b57600080fd5b61122786828701611089565b9150509250925092565b6000806000806080858703121561124757600080fd5b600085013567ffffffffffffffff81111561126157600080fd5b61126d87828801611089565b945050602085013567ffffffffffffffff81111561128a57600080fd5b61129687828801611089565b935050604085013567ffffffffffffffff8111156112b357600080fd5b6112bf87828801611089565b925050606085013567ffffffffffffffff8111156112dc57600080fd5b6112e887828801611089565b91505092959194509250565b60006020828403121561130657600080fd5b6000611314848285016110dd565b91505092915050565b60008060006060848603121561133257600080fd5b6000611340868287016110dd565b935050602084013567ffffffffffffffff81111561135d57600080fd5b61136986828701611089565b925050604084013567ffffffffffffffff81111561138657600080fd5b61139286828701611089565b9150509250925092565b6113a5816115c9565b82525050565b60006113b6826115ad565b6113c081856115b8565b93506113d0818560208601611614565b6113d981611647565b840191505092915050565b6113ed816115fb565b82525050565b6000608082019050611408600083018761139c565b818103602083015261141a81866113ab565b9050818103604083015261142e81856113ab565b9050818103606083015261144281846113ab565b905095945050505050565b600060a082019050611462600083018861139c565b818103602083015261147481876113ab565b9050818103604083015261148881866113ab565b9050818103606083015261149c81856113ab565b905081810360808301526114b081846113ab565b90509695505050505050565b60006020820190506114d160008301846113e4565b92915050565b600060c0820190506114ec60008301896113e4565b81810360208301526114fe81886113ab565b905061150d604083018761139c565b818103606083015261151f81866113ab565b9050818103608083015261153381856113ab565b905081810360a083015261154781846113ab565b9050979650505050505050565b6000604051905081810181811067ffffffffffffffff8211171561157757600080fd5b8060405250919050565b600067ffffffffffffffff82111561159857600080fd5b601f19601f8301169050602081019050919050565b600081519050919050565b600082825260208201905092915050565b60006115d4826115db565b9050919050565b600073ffffffffffffffffffffffffffffffffffffffff82169050919050565b6000819050919050565b82818337600083830152505050565b60005b83811015611632578082015181840152602081019050611617565b83811115611641576000848401525b50505050565b6000601f19601f8301169050919050565b611661816115c9565b811461166c57600080fd5b50565b611678816115fb565b811461168357600080fd5b5056fea365627a7a72315820eee63451f32c908ea59fa2f9fd11875cd7f649bdcc9e42167682fade8614ccc86c6578706572696d656e74616cf564736f6c63430005100040",
  "source": "// SPDX-License-Identifier: MIT\r\n// pragma solidity ^0.5.16;\r\npragma experimental ABIEncoderV2;\r\n\r\ncontract IdentityManagement {\r\n    // Model a User / Wallet\r\n    struct Wallet {\r\n        // uint id;\r\n        address id;\r\n        string name;\r\n        string email;\r\n        string phone;\r\n    }\r\n\r\n    // Model a Driver License\r\n    struct DL {\r\n        // uint id;\r\n        address walletId;\r\n        string dlName;\r\n        string dlNumber;\r\n        string dlDob;\r\n        string dlAddress;\r\n    }\r\n\r\n    struct Institution {\r\n        uint id;\r\n        \r\n    }\r\n    struct Request {\r\n        uint id;\r\n        string institution_name;\r\n        address requestedId;\r\n        // string[] requestedPermissions;\r\n        // string[] approvedPermissions;\r\n        string requestedPermissionsString;\r\n        string approvedPermissionsString;\r\n        string status;\r\n    }\r\n\r\n    event WalletCreated(address indexed _from, address indexed _id);\r\n    event DLAttached(address indexed _from, address indexed _walletId, address indexed _dlId);\r\n    event RequestCreated(uint _id);\r\n    event RequestApproved(uint _id);\r\n    event RetrieveApproved(string dlNo, string dlName, string dlDOB, string dlAddress, string);\r\n\r\n    \r\n    mapping(address => Wallet) public wallets;\r\n    mapping(address => DL) public DLs;\r\n    mapping (uint => Request) public requests;\r\n\r\n    uint public walletsCount;\r\n    uint public dlsCount;\r\n    uint public requestsCount;\r\n\r\n    // Constructor\r\n    constructor () public {}\r\n\r\n    function addWallet(string memory name, string memory email, string memory phone) public returns (uint) {\r\n        walletsCount++;\r\n        wallets[msg.sender] = Wallet(msg.sender, name, email, phone);\r\n        emit WalletCreated(msg.sender, msg.sender);\r\n    }\r\n \r\n    function attachDl(string memory name, string memory number, string memory dob, string memory dlAddress) public {\r\n        dlsCount++;\r\n        DLs[msg.sender] = DL(msg.sender, name, number, dob, dlAddress);\r\n        emit DLAttached(msg.sender, msg.sender, msg.sender);\r\n    }\r\n\r\n    function createRequest(string memory name, address requestedId, string memory permissionString) public {\r\n        requestsCount++;\r\n        requests[requestsCount] = Request(requestsCount, name, requestedId, permissionString, \"\", \"PENDING\");\r\n        emit RequestCreated(requestsCount);\r\n    }\r\n\r\n    function approveRequest(uint requestId, string memory status, string memory permissionString) public {\r\n        requests[requestId].approvedPermissionsString = permissionString;\r\n        requests[requestId].status = status;\r\n\r\n        emit RequestApproved(requestId);\r\n    }\r\n\r\n    // function getApprovedAccessData(uint requestId) public {\r\n    //     //  address walletId;\r\n    //     // string dlNumber;\r\n    //     // string dlDob;\r\n    //     // string dlAddress;\r\n\r\n    //     // requests[requestId].walletId;\r\n\r\n\r\n    //     // requests[requestId].walletId\r\n    //     emit RetrieveApproved(DLs[requests[requestId].walletId].dlNumber, DLs[requests[requestId].walletId].name, DLs[requests[requestId].walletId].dlDob, DLs[requests[requestId].walletId].dlAddress, \"\");\r\n    // }\r\n}",
  "sourcePath": "C:\\Users\\valer\\Downloads\\Blockchain-Identity-Management-App\\Blockchain-Identity-Management-App\\contracts\\IdentityManagement.sol",
  "compiler": {
    "name": "solc",
    "version": "0.5.16+commit.9c3226ce.Emscripten.clang"
  },
  "schemaVersion": "3.4.7",
  "updatedAt": "2022-05-03T02:42:53.035Z",
  "networkType": "ethereum",
  "devdoc": {
    "methods": {}
  },
  "userdoc": {
    "methods": {}
  }
}