{
  "contractName": "IdentityManagement",
  "abi": [
    {
      "inputs": [],
      "payable": false,
      "stateMutability": "nonpayable",
      "type": "constructor"
    },
    {
      "constant": true,
      "inputs": [
        {
          "internalType": "address",
          "name": "",
          "type": "address"
        }
      ],
      "name": "registeredUser",
      "outputs": [
        {
          "internalType": "bool",
          "name": "",
          "type": "bool"
        }
      ],
      "payable": false,
      "stateMutability": "view",
      "type": "function"
    },
    {
      "constant": true,
      "inputs": [
        {
          "internalType": "uint256",
          "name": "",
          "type": "uint256"
        }
      ],
      "name": "users",
      "outputs": [
        {
          "internalType": "uint256",
          "name": "id",
          "type": "uint256"
        },
        {
          "internalType": "string",
          "name": "dl_no",
          "type": "string"
        },
        {
          "internalType": "string",
          "name": "dl_name",
          "type": "string"
        },
        {
          "internalType": "string",
          "name": "dl_address",
          "type": "string"
        }
      ],
      "payable": false,
      "stateMutability": "view",
      "type": "function"
    },
    {
      "constant": true,
      "inputs": [],
      "name": "usersCount",
      "outputs": [
        {
          "internalType": "uint256",
          "name": "",
          "type": "uint256"
        }
      ],
      "payable": false,
      "stateMutability": "view",
      "type": "function"
    },
    {
      "constant": false,
      "inputs": [],
      "name": "addUserID",
      "outputs": [],
      "payable": false,
      "stateMutability": "nonpayable",
      "type": "function"
    }
  ],
  "bytecode": "0x608060405234801561001057600080fd5b5061001f61002460201b60201c565b610218565b600260008154809291906001019190505550604051806080016040528060025481526020016040518060400160405280600881526020017f593233353833363400000000000000000000000000000000000000000000000081525081526020016040518060400160405280600981526020017f5669204e677579656e000000000000000000000000000000000000000000000081525081526020016040518060400160405280600c81526020017f53616e204a6f73652c2043410000000000000000000000000000000000000000815250815250600160006002548152602001908152602001600020600082015181600001556020820151816001019080519060200190610133929190610173565b506040820151816002019080519060200190610150929190610173565b50606082015181600301908051906020019061016d929190610173565b50905050565b828054600181600116156101000203166002900490600052602060002090601f016020900481019282601f106101b457805160ff19168380011785556101e2565b828001600101855582156101e2579182015b828111156101e15782518255916020019190600101906101c6565b5b5090506101ef91906101f3565b5090565b61021591905b808211156102115760008160009055506001016101f9565b5090565b90565b6106a2806102276000396000f3fe608060405234801561001057600080fd5b506004361061004c5760003560e01c80630961b61a14610051578063365b98b2146100ad5780636ba13a8214610233578063e528464314610251575b600080fd5b6100936004803603602081101561006757600080fd5b81019080803573ffffffffffffffffffffffffffffffffffffffff16906020019092919050505061025b565b604051808215151515815260200191505060405180910390f35b6100d9600480360360208110156100c357600080fd5b810190808035906020019092919050505061027b565b60405180858152602001806020018060200180602001848103845287818151815260200191508051906020019080838360005b8381101561012757808201518184015260208101905061010c565b50505050905090810190601f1680156101545780820380516001836020036101000a031916815260200191505b50848103835286818151815260200191508051906020019080838360005b8381101561018d578082015181840152602081019050610172565b50505050905090810190601f1680156101ba5780820380516001836020036101000a031916815260200191505b50848103825285818151815260200191508051906020019080838360005b838110156101f35780820151818401526020810190506101d8565b50505050905090810190601f1680156102205780820380516001836020036101000a031916815260200191505b5097505050505050505060405180910390f35b61023b610473565b6040518082815260200191505060405180910390f35b610259610479565b005b60006020528060005260406000206000915054906101000a900460ff1681565b6001602052806000526040600020600091509050806000015490806001018054600181600116156101000203166002900480601f01602080910402602001604051908101604052809291908181526020018280546001816001161561010002031660029004801561032d5780601f106103025761010080835404028352916020019161032d565b820191906000526020600020905b81548152906001019060200180831161031057829003601f168201915b505050505090806002018054600181600116156101000203166002900480601f0160208091040260200160405190810160405280929190818152602001828054600181600116156101000203166002900480156103cb5780601f106103a0576101008083540402835291602001916103cb565b820191906000526020600020905b8154815290600101906020018083116103ae57829003601f168201915b505050505090806003018054600181600116156101000203166002900480601f0160208091040260200160405190810160405280929190818152602001828054600181600116156101000203166002900480156104695780601f1061043e57610100808354040283529160200191610469565b820191906000526020600020905b81548152906001019060200180831161044c57829003601f168201915b5050505050905084565b60025481565b600260008154809291906001019190505550604051806080016040528060025481526020016040518060400160405280600881526020017f593233353833363400000000000000000000000000000000000000000000000081525081526020016040518060400160405280600981526020017f5669204e677579656e000000000000000000000000000000000000000000000081525081526020016040518060400160405280600c81526020017f53616e204a6f73652c20434100000000000000000000000000000000000000008152508152506001600060025481526020019081526020016000206000820151816000015560208201518160010190805190602001906105889291906105c8565b5060408201518160020190805190602001906105a59291906105c8565b5060608201518160030190805190602001906105c29291906105c8565b50905050565b828054600181600116156101000203166002900490600052602060002090601f016020900481019282601f1061060957805160ff1916838001178555610637565b82800160010185558215610637579182015b8281111561063657825182559160200191906001019061061b565b5b5090506106449190610648565b5090565b61066a91905b8082111561066657600081600090555060010161064e565b5090565b9056fea265627a7a72315820afd348ea8d7e2c6e98b1aadcec1ec490d66113c8838c30dfe85b83b32fc52cd364736f6c63430005100032",
  "source": "// SPDX-License-Identifier: MIT\r\npragma solidity ^0.5.16;\r\n\r\ncontract IdentityManagement {\r\n    // Model a User\r\n    struct UserID {\r\n        uint id;\r\n        string dl_no;\r\n        string dl_name;\r\n        string dl_address;\r\n    }\r\n    struct Insitution {\r\n        uint id;\r\n        string institution_name;\r\n    }\r\n    struct Request {\r\n        uint id;\r\n        string request_name;\r\n        string request_status;\r\n    }\r\n    // Store user that is registered\r\n    mapping(address => bool) public registeredUser;\r\n    // Store User\r\n    // Fetch User\r\n    mapping(uint => UserID) public users;\r\n    // Read user\r\n\r\n    uint public usersCount;\r\n\r\n    // Constructor\r\n    constructor () public {\r\n        addUserID();\r\n    }\r\n\r\n    function addUserID() public {\r\n        usersCount++;\r\n        users[usersCount] = UserID(usersCount, \"Y2358364\", \"Vi Nguyen\", \"San Jose, CA\");\r\n    }\r\n\r\n    function viewUser() private {\r\n\r\n    }\r\n\r\n    function sendRequest() private {\r\n\r\n    }\r\n\r\n    function updateRequest() private {\r\n\r\n    }\r\n\r\n    function viewRequest() private {\r\n\r\n    }\r\n\r\n\r\n}",
  "sourcePath": "C:\\Users\\valer\\Google Drive\\Last Semester - Spring22_Courses_SJSU\\CMPE183\\Project\\Blockchain-Identity-Management-App\\contracts\\IdentityManagement.sol",
  "compiler": {
    "name": "solc",
    "version": "0.5.16+commit.9c3226ce.Emscripten.clang"
  },
  "schemaVersion": "3.4.7",
  "updatedAt": "2022-04-16T01:11:26.878Z",
  "networkType": "ethereum",
  "devdoc": {
    "methods": {}
  },
  "userdoc": {
    "methods": {}
  }
}